:020000040000FA
:060000000200CF02200304
:03000B0002200BC5
:03001300022013B5
:03001B0002201BA5
:0300230002202395
:03002B0002202B85
:0300330002203375
:03003B0002203B65
:0300430002204355
:03004B0002204B45
:0300530002205335
:03005B0002205B25
:0300630002206315
:03006B0002206B05
:03007300022073F5
:03007B0002207BE5
:03008300022083D5
:10008B0002208B00000080FB7A017B029000FF783E
:10009B002979038015E493A3AD82AE838A828B8387
:1000AB00F0A3AA82AB838D828E83D8E9D9E77582C0
:1000BB00FD75830E74001200E175828E75830074DA
:1000CB00001200E175D0007581BF7510017511022A
:1000DB00759F00020093C09FF59FE473D09F22D0C1
:1000EB0083D082C09FE493C0E0740193C0E074029C
:1000FB0093F59F220400000000080000000021106F
:10010B00422063308440A550C660E7700881299176
:10011B004AA16BB18CC1ADD1CEE1EFF1311210021E
:10012B0073325222B5529442F772D66239931883C6
:10013B007BB35AA3BDD39CC3FFF3DEE362244334EA
:10014B0020040114E664C774A44485546AA54BB516
:10015B0028850995EEE5CFF5ACC58DD553367226BE
:10016B0011163006D776F6669556B4465BB77AA766
:10017B0019973887DFF7FEE79DD7BCC7C448E5580A
:10018B008668A7784008611802282338CCC9EDD9B6
:10019B008EE9AFF9488969990AA92BB9F55AD44A5E
:1001AB00B77A966A711A500A333A122AFDDBDCCB06
:1001BB00BFFB9EEB799B588B3BBB1AABA66C877C2A
:1001CB00E44CC55C222C033C600C411CAEED8FFD56
:1001DB00ECCDCDDD2AAD0BBD688D499D977EB66EFE
:1001EB00D55EF44E133E322E511E700E9FFFBEEFA6
:1001FB00DDDFFCCF1BBF3AAF599F788F8891A98168
:10020B00CAB1EBA10CD12DC14EF16FE18010A10051
:10021B00C230E3200450254046706760B983989341
:10022B00FBA3DAB33DC31CD37FE35EF3B1029012A1
:10023B00F322D2323542145277625672EAB5CBA50D
:10024B00A89589856EF54FE52CD50DC5E234C324F1
:10025B00A01481046674476424540544DBA7FAB7E1
:10026B009987B8975FE77EF71DC73CD7D326F23641
:10027B009106B01657667676154634564CD96DC92D
:10028B000EF92FE9C899E9898AB9ABA94458654891
:10029B0006782768C018E1088238A3287DCB5CDB81
:1002AB003FEB1EFBF98BD89BBBAB9ABB754A545AE1
:1002BB00376A167AF10AD01AB32A923A2EFD0FED4D
:1002CB006CDD4DCDAABD8BADE89DC98D267C076C31
:1002DB00645C454CA23C832CE01CC10C1FEF3EFF21
:1002EB005DCF7CDF9BAFBABFD98FF89F176E367E81
:1002FB00554E745E932EB23ED10EF01E0000FF00E1
:10030B0000FF0000230119202100000080000000E5
:10031B0000D0010080D00100002000001200EAD4C0
:10032B0009001200EAB20A001200EA850F0012005F
:10033B00EA350E001200EA8D0E001200EA3C0F00A7
:10034B001200EAB60C001200EA5F0D001200EA126E
:10035B000E001200EA700F001200EA800F0012006C
:10036B00EA490600E76670100809E766700A080993
:10037B00E76670040809E76622E066701008A3E0E0
:10038B0066700A08A3E066700408A3E06622C3E067
:10039B009608A3E09608A3E09608A3E09622C0086F
:1003AB00C3E096F50808A3E096420808A3E096423E
:1003BB000808A3E09645087001D3D0082260160800
:1003CB000808C6C313C618C613C618C613C618C664
:1003DB0013C6D5E0EA22700908080822601618181F
:1003EB0018C6C333C608C633C608C633C608C633D9
:1003FB00C6D5E0EA22E026F608A3E036F608A3E02D
:10040B0036F608A3E036F622E026F008A3E036F035
:10041B0008A3E036F008A3E036F022C3E0C696F658
:10042B0008A3E0C696F608A3E0C696F608A3E0C6B6
:10043B0096F622E056F608A3E056F608A3E056F629
:10044B0008A3E056F622E647F60809E647F6080940
:10045B00E647F60809E647F622E0F608A3E0F608B9
:10046B00A3E0F608A3E0F622E6F008A3E6F008A363
:10047B00E6F008A3E6F022E0FAA3E0FBA3E0FCA37E
:10048B00E0FD22E0F8A3E0F9A3E0FAA3E0FB22E809
:10049B00F0A3E9F0A3EAF0A3EBF022CAC0E0E6F088
:1004AB00A308DAFAD0E0FA22CAC0E0E0A3C582CCF6
:1004BB00C582C583CDC583F0A3C582CCC582C58358
:1004CB00CDC583DAE6D0E0CA22700422600D18C6CF
:1004DB00C333C608C633C6D5E0F41822251010AFB7
:1004EB0008F510400C15118008F51040021511D2BB
:1004FB00AF2200C0D0251010AF08F510500C05111D
:10050B008008F51050020511D2AFD0D0222510F57E
:10051B008210AF08F510400C15118008F510400241
:10052B001511D2AF851183222510F582E43511F513
:10053B0083222510F8E43511F9222510FAE4351140
:10054B00FB222510FCE43511FD222510C582C0E0ED
:10055B00E51134FFC583C0E0E510C3958224F81084
:10056B00AF088583118582108008858311858210E1
:10057B00D2AFCEF0A3E520F0A37808E608F0A3DE17
:10058B00FAEFF0A3E58124FAF8E608F0A3E608F009
:10059B00A3E608F0A30808E608F0A3E608F0A31505
:1005AB00811581D0E0FED0E0F8158115811581E829
:1005BB00C0E0EEC0E022851183851082E0A3FEE04F
:1005CB00A3F5207808E0A3F608DFFAE0A3FFE0A389
:1005DB00C0E0E0A3C0E0E0A3C0E0E0A3C0E0E0A384
:1005EB00C0E010AF088582108583118008858210CA
:1005FB00858311D2AFD083D0820200E774048004CC
:10060B0074028000C0E0F404120518D0E01204A6B6
:10061B002274048000CCC0E0EDC0E0E510C39CCC9C
:10062B00AD1150011D10AF068C108D1180068C1072
:10063B008D11D2AF1204B3D0E0FDD0E0FC2274F0E8
:10064B0012055574531204E77409120533EAF0A32B
:10065B00EBF0A3ECF0A3EDF0740912053312061CBA
:10066B007C807D00743112054512034B7404120417
:10067B00FD742D12053312048E85108285118312A1
:10068B00049A851082851183780812046474187893
:10069B00081203E1851082851183780C12046474AF
:1006AB0008780C1203E1900409780C12043E7808C8
:1006BB00790C120451851082851183780C12046415
:1006CB007408780C1203C890040D780C12043E7851
:1006DB0008790C120451851082851183780C120451
:1006EB00647418780C1203C87808790C12045175CD
:1006FB008304758211780812038460030209A774BE
:10070B003112053312048E85108285118312049ADF
:10071B007431120533E4F0A3F0A3F0A3F075088055
:10072B00F509780812060B742F12054D7A007B0021
:10073B0012033F74021204FD851082851183780821
:10074B00120464741878081203E1851082851183F2
:10075B00780C1204647408780C1203E19004097885
:10076B000C12043E7808790C120451851082851105
:10077B0083780C1204647408780C1203C890040D6F
:10078B00780C12043E7808790C120451851082857E
:10079B001183780C1204647418780C1203C878084F
:1007AB00790C1204518B0D8A0C7808790C12036F9B
:1007BB0060030209A7743912053312048E85108267
:1007CB0085118312049A851082851183780812048F
:1007DB0064741878081203E1851082851183780CF4
:1007EB001204647408780C1203E1900409780C125B
:1007FB00043E7808790C1204518510828511837898
:10080B000C1204647408780C1203C890040D780C55
:10081B0012043E7808790C120451851082851183DD
:10082B00780C1204647418780C1203C87808790CCD
:10083B001204517409120533780C120464E50C246C
:10084B0080C0E07404120533D0E0F0740512053358
:10085B00E4F0A3F0A3F0A3F00208F37808120473FA
:10086B007404120533E0F50CE4F50DF50EF50F7875
:10087B000C1206077404120533780C120464AC0CCA
:10088B00AD0D741112054512034B74041204FD8552
:10089B001082851183780C120464780C12060B7489
:1008AB000F12054D7407120533780C120464AA0C51
:1008BB00AB0D12033F74021204FD7405120533EAEB
:1008CB00F0A3EBF0A3E4F0A3F085108285118378FD
:1008DB000C1204647404120533E0250CF0851082AD
:1008EB008511837808120426E5084509450A450B4E
:1008FB00602090041578081203A985108285118356
:10090B0040030208667420F0A3E4F0A3F0A3F00206
:10091B00086B743512053312048E85108285118392
:10092B0012049A8510828511837808120464741856
:10093B0078081203E1851082851183780C12046408
:10094B007408780C1203E1900409780C12043E78B9
:10095B0008790C120451851082851183780C1204CE
:10096B00647408780C1203C890040D780C12043EC2
:10097B007808790C120451851082851183780C123A
:10098B0004647418780C1203C87808790C1204519B
:10099B007405120533780812038460067AFF7BFF17
:1009AB00801D7409120533780812046490041978B9
:1009BB0008120400AA08AB09AC0AAD0B120327748A
:1009CB00AD1204FD7F080205C174F012055574F8D1
:1009DB001204E78A088B098C0A8D0B7E007F007846
:1009EB00081206077C047D00EC12054512034B74BC
:1009FB00041204FD7402120533120CB085108285AB
:100A0B001183E0F47003A3E0F4700A74FF687003C1
:100A1B0074FF69607EC3E9946C507890020178088A
:100A2B001204008E0E8E0F804A78081206077C0483
:100A3B007D00740812054512034B74041204FD75F6
:100A4B000C04750D00780C12060B740612054DEE96
:100A5B00FAEFFB12033974021204FD8A0C8B0DAEF4
:100A6B000CAF0D9002017808120400050EE50E7014
:100A7B0002050F7402120533120CB0C3E50E98E594
:100A8B000F9940A5851082851183E06E7003A3E05A
:100A9B006F70067A007B0080047AFF7BFF7408126C
:100AAB0004FD7F080205C174F012055574E61204AB
:100ABB00E77416120533EAF0A3EBF0A3ECF0A3ED09
:100ACB00F0742A1205337808120464741612053375
:100ADB0012048E740212053312049A780812060758
:100AEB007C047D00740A12054512034B7404120436
:100AFB00FD90020178081204007412120533E4F021
:100B0B00A3F0A3F0A3F0740212053312048E740E3B
:100B1B0012053312049A802F740E120533120482BD
:100B2B00120357900205780C1204647412120533E9
:100B3B00780C120413900205780C120464740E12D4
:100B4B000533780C1204137408120533E0F50CA36B
:100B5B00E0F50D7402780C1204D4F50EF50F741237
:100B6B00120533780C12039940AE851082851183E0
:100B7B00E4F0A3805C78081206077C047D00740EF9
:100B8B0012054512034B74041204FD750C04750D0C
:100B9B0000780C12060B740C12053D880C890D782D
:100BAB000C12060B740612053312048212035174D5
:100BBB00041204FD900201780812040090020178DF
:100BCB000C1204647402120533780C120413120C09
:100BDB00A1F0851082851183C082C0837408120531
:100BEB0033120CB0D083D082C3E098A3E099408538
:100BFB007E007F00741612053312048E74021205E8
:100C0B003312049A851082851183E4F0A380527409
:100C1B000212053312061C7C047D00740E1205456E
:100C2B0012034B74041204FD750C04750D00780C43
:100C3B0012060B740C12054DEEFAEFFB120339740E
:100C4B00021204FD8A0C8B0DAE0CAF0D90020178D5
:100C5B000C1204647402120533780C120413120C78
:100C6B00A1F0851082851183C082C08374081205A0
:100C7B0033120CB0D083D082C3E098A3E099408F9D
:100C8B007406120533E06E7003A3E06F6003020A73
:100C9B00E6741A020AAA851082851183E02401F0FA
:100CAB00A3E0340022E0F8A3E0F92274F01205551A
:100CBB00ECFEEDFFE5C7F97410120533780812044A
:100CCB006485080C85090D850A0E850B0F740B784E
:100CDB000C1203C8AC0C740F5CF50C750D00740B87
:100CEB00780C1204D4E5095407F509E5082400E54E
:100CFB00093480F509E5082400E509350DF509A24D
:100D0B00AFE433F50AC2AFECC4540FF8E5C754F89F
:100D1B0048F5C7EE4F6030EEFC850882850983E00D
:100D2B008A828B83F0850882850983A38582088557
:100D3B0083098A828B83A3AA82AB83EC24FF1CEDED
:100D4B0034FFFDEC4D70D289C7E50AA2E092AF7F6C
:100D5B00080205C174F412055574F81204E78A08E9
:100D6B008B098C0A8D0B7414120533E0F8A3E08504
:100D7B001082851183F07401120533E8F0740212AE
:100D8B0005337462F074031205337473F074161226
:100D9B000533E0FAA3E0541FC0E07404120533D00E
:100DAB00E0F07405120533EAF07406120533741281
:100DBB00F07407120533744AF0E511F5D5E510F51B
:100DCB00D4906270E0A2E740F8740278081203C86E
:100DDB00E509906272F0E508906271F043D601006C
:100DEB000000000000000000906270E0D2E1F0E52E
:100DFB00D1A2E050FAE054C070FB75D1FE7408121A
:100E0B0004FD7F040205C174F41205558A088B0991
:100E1B008C0A8D0B740A78081203C8E5089062726D
:100E2B00F0906270E0D2E0F080D874F61205557441
:100E3B000A120533E0F8A3E0F9C3E89401E9940042
:100E4B00A2D265D0334036E8FEE9FFEBF88C828DF9
:100E5B0083E0F508E8650825E0F8E433F974092820
:100E6B00F582740239F583EAFBE0FAA3E06BFB8CA5
:100E7B00828D83A3AC82AD83120EF270CE7F020201
:100E8B0005C174F712055574FF6AFA74FF6BFB7496
:100E9B0009120533E0F8A3E0F9E849603FE8FEE901
:100EAB00FF8C828D83E06AFAA3AC82AD8375080850
:100EBB00EE24FF1EEF34FFFFEAF8EBC313F9E81340
:100ECB00F8EAA2E0E850086420FAE964838002FAA9
:100EDB00E9FB1508E50870E0EE4F70C5EAF4FAEB94
:100EEB00F4FB7F010205C1EE24FF1EEF34FFFFEE82
:100EFB004F2212036312033390041D120482120358
:100F0B00698A088B09EA4509701D90042112061C99
:100F1B0090042512048212032D74041204FD900414
:100F2B001D1204821203570220007A007B0002007C
:100F3B00E7E5C65480F853BEFBE59DA2E550FAE504
:100F4B009DA2E240F400740169700474498005E9C4
:100F5B007005741048F5C6E5C6F8E59E6870FB434E
:100F6B00BE040200E7C082C0837900120345D08320
:100F7B00D0820200E7C2AF0200E7C082C083120337
:080F8B005DD083D0820200E773
:04000005000000CF28
:00000001FF
